:060000000A128A11FC2F18
:100DCC0083160317890183160313870106148614EF
:100DDC0006158312031387010130F5000030F6006D
:100DEC00F701F801F401F30183120313061CFF2E23
:100DFC00002F0C2F0618032F042F002F7308031934
:100E0C00082F0A2F01300B2F0030F300861C0F2FF8
:100E1C00102F2B2F8618132F142F102F0130F5079E
:100E2C000318F60A0030F6077608803AFF00803087
:100E3C007F02031D232F04307502031C262F272F3E
:100E4C002B2F0130F5000030F60083120313061D22
:100E5C00302F312FE92F0619342F352F312F7608EB
:100E6C00803AFF0080307F02031D3E2F0130750257
:100E7C00031C412F422FE92FFF30F5070318F60A08
:100E8C00FF30F607E92F7408031D4D2F4E2FFA2E55
:100E9C0073080319522F532FFA2E0130F000770AE2
:100EAC00592F0310F00DFF3E031D572F70088312AE
:100EBC00031387000830F2009D30F1000530F0007C
:100ECC00F00B662FF10B662FF20B662F6D2F013096
:100EDC00F7070318F80A0030F8077808803AFF0083
:100EEC0080307F02031D7C2F09307702031C7F2F7B
:100EFC00802FFA2EF701F801FA2E7408031D872FA4
:100F0C00882FFA2E0130F000770A8E2F0310F00D87
:100F1C00FF3E031D8C2F70088312031387000630CD
:100F2C00F2001330F100AD30F000F00B9B2FF10B01
:100F3C009B2FF20B9B2FA22F0130F7070318F80AF7
:100F4C000030F8077808803AFF0080307F02031DDC
:100F5C00B12F09307702031CB42FB52FFA2E802F36
:100F6C007408031DBA2FBB2FFA2E0130F000770A3C
:100F7C00C12F0310F00DFF3E031DBF2F700883120D
:100F8C00031387000330F2008A30F1005530F00073
:100F9C00F00BCE2FF10BCE2FF20BCE2FD52F013025
:100FAC00F7070318F80A0030F8077808803AFF00B2
:100FBC0080307F02031DE42F09307702031CE72FDA
:100FCC00E82FFA2E802F7608003A0319EE2FFA2E0E
:100FDC007508013A0319492F033A0319832F013A73
:100FEC000319B62FFA2E0A128A11002883010A124D
:040FFC008A11E62E42
:08400000FF3FFF3FFF3FFF3FC0
:04400E00F12FFF3F50
:00000001FF
