:060000000A128A11FC2F18
:100E74008316031789018316031387010614861446
:100E840006158312031387010130F4000030F500C6
:100E9400F701F801F301F60183120313061C532F23
:100EA400542F602F0618572F582F542F76080319E4
:100EB4005C2F5E2F01305F2F0030F600861C632FFD
:100EC400642F7F2F8618672F682F642F0130F40753
:100ED4000318F50A0030F5077508803AFF008030E2
:100EE4007F02031D772F04307402031C7A2F7B2F9B
:100EF4007F2F0130F4000030F50083120313061D28
:100F0400842F852F8B2F0619882F892F852F8701F2
:100F1400F6017603031D8F2F902F4E2F0130F00022
:100F2400770A962F0310F00DFF3E031D942F7008CF
:100F34008700C62F0630F2001330F100AD30F00008
:100F4400F00BA22FF10BA22FF20BA22FA92FD62F59
:100F54000330F2008A30F1005530F000F00BB02F6E
:100F6400F10BB02FF20BB02FB72FD62F0230F200B7
:100F74004530F100A930F000F00BBE2FF10BBE2F6D
:100F8400F20BBE2FC52FD62F7508003A0319CB2FAD
:100F9400D62F7408013A03199C2F033A0319AA2F78
:100FA400013A0319B82FD62F7308031DDA2FDB2F4C
:100FB400EB2F0130F7070318F80A0030F807073061
:100FC40077067804031DE72FE82F4E2F0130F30036
:100FD4004E2FFF30F7070318F80AFF30F807770899
:100FE4007804031DF62FF72F4E2FF3014E2F0A120C
:0C0FF4008A11002883010A128A113A2F8A
:08400000FF3FFF3FFF3FFF3FC0
:04400E00F12FFF3F50
:00000001FF
