:100000000A128A11FC2F00308A000408840A820731
:100010000034003400340034003400340034003440
:10002000003401340034003400340034003400342F
:10003000003401340134003400340034003400341E
:10004000003401340134013400340034003400340D
:1000500000340134013401340134003400340034FC
:1000600000340134013401340134013400340034EB
:1000700000340134013401340134013401340034DA
:1000800000340134013401340134013401340134C9
:1000900000340134013401340134013401340134B9
:0200A000013429
:100EA4008316031789018316031307148714860115
:100EB400831203138601F201F30183120313071C47
:100EC400642F652F7B2F0D30F100FB30F000F00B09
:100ED400692FF10B692F6E2F831203130718732FD9
:100EE400742F6E2F0130F2070318F30A0030F30752
:100EF400942F871C7E2F7F2F942F0D30F100FB3011
:100F0400F000F00B832FF10B832F882F8312031330
:100F140087188D2F8E2F882FFF30F2070318F30ABE
:100F2400FF30F3077308803AFF0080307F02031D0F
:100F34009D2F09307202031CA02FA12FA32FF201B1
:100F4400F301F31FA62FA72FAB2F0830F2000030B8
:100F5400F300F401F5017208F00003300310F00D02
:100F6400FF3E031DB02F01307007F10074087107B4
:100F740084000A128A1103200A128A11013A031DFD
:100F8400C42FC52FD52F0130F000740ACB2F0310C6
:100F9400F00DFF3E031DC92F7008FF007F08831268
:100FA40003138604E52F0130F000740ADB2F0310CD
:100FB400F00DFF3E031DD92F7008FF3AFF007F0894
:100FC4008312031386050130F4070318F50A003071
:100FD400F5077508803AFF0080307F02031DF42F67
:100FE40008307402031CF72FF82FAD2F5F2F0A125D
:0C0FF4008A11002883010A128A11522F72
:08400000FF3FFF3FFF3FFF3FC0
:04400E00F42FFF3F4D
:00000001FF
